{
  "contractName": "QuickHands",
  "abi": [
    {
      "inputs": [],
      "stateMutability": "nonpayable",
      "type": "constructor"
    },
    {
      "anonymous": false,
      "inputs": [
        {
          "indexed": true,
          "internalType": "uint256",
          "name": "date",
          "type": "uint256"
        },
        {
          "indexed": true,
          "internalType": "uint256",
          "name": "scamTxHash",
          "type": "uint256"
        },
        {
          "indexed": false,
          "internalType": "address",
          "name": "victimWallet",
          "type": "address"
        },
        {
          "indexed": false,
          "internalType": "address",
          "name": "backupWallet",
          "type": "address"
        },
        {
          "indexed": true,
          "internalType": "address",
          "name": "token",
          "type": "address"
        },
        {
          "indexed": false,
          "internalType": "uint256",
          "name": "amount",
          "type": "uint256"
        }
      ],
      "name": "RescueAttempt",
      "type": "event"
    },
    {
      "inputs": [],
      "name": "owner",
      "outputs": [
        {
          "internalType": "address",
          "name": "",
          "type": "address"
        }
      ],
      "stateMutability": "view",
      "type": "function",
      "constant": true
    },
    {
      "inputs": [],
      "name": "isEnrolled",
      "outputs": [
        {
          "internalType": "bool",
          "name": "",
          "type": "bool"
        }
      ],
      "stateMutability": "view",
      "type": "function",
      "constant": true
    },
    {
      "inputs": [],
      "name": "getUserProfile",
      "outputs": [
        {
          "components": [
            {
              "internalType": "uint256",
              "name": "created",
              "type": "uint256"
            },
            {
              "internalType": "address",
              "name": "backupWallet",
              "type": "address"
            },
            {
              "internalType": "bool",
              "name": "enrolled",
              "type": "bool"
            },
            {
              "internalType": "address[]",
              "name": "enrolledTokens",
              "type": "address[]"
            }
          ],
          "internalType": "struct QuickHands.Profile",
          "name": "",
          "type": "tuple"
        }
      ],
      "stateMutability": "view",
      "type": "function",
      "constant": true
    },
    {
      "inputs": [
        {
          "internalType": "address",
          "name": "user",
          "type": "address"
        }
      ],
      "name": "getUserProfileByAddress",
      "outputs": [
        {
          "components": [
            {
              "internalType": "uint256",
              "name": "created",
              "type": "uint256"
            },
            {
              "internalType": "address",
              "name": "backupWallet",
              "type": "address"
            },
            {
              "internalType": "bool",
              "name": "enrolled",
              "type": "bool"
            },
            {
              "internalType": "address[]",
              "name": "enrolledTokens",
              "type": "address[]"
            }
          ],
          "internalType": "struct QuickHands.Profile",
          "name": "",
          "type": "tuple"
        }
      ],
      "stateMutability": "view",
      "type": "function",
      "constant": true
    },
    {
      "inputs": [
        {
          "internalType": "address",
          "name": "backupWallet",
          "type": "address"
        }
      ],
      "name": "enrollUser",
      "outputs": [],
      "stateMutability": "nonpayable",
      "type": "function"
    },
    {
      "inputs": [],
      "name": "deleteUser",
      "outputs": [],
      "stateMutability": "nonpayable",
      "type": "function"
    },
    {
      "inputs": [
        {
          "internalType": "address",
          "name": "token",
          "type": "address"
        }
      ],
      "name": "enrollToken",
      "outputs": [],
      "stateMutability": "nonpayable",
      "type": "function"
    },
    {
      "inputs": [
        {
          "internalType": "uint256",
          "name": "scamTxHash",
          "type": "uint256"
        },
        {
          "internalType": "address",
          "name": "token",
          "type": "address"
        },
        {
          "internalType": "address",
          "name": "victimWallet",
          "type": "address"
        },
        {
          "internalType": "uint256",
          "name": "amount",
          "type": "uint256"
        }
      ],
      "name": "rescueToken",
      "outputs": [],
      "stateMutability": "nonpayable",
      "type": "function"
    }
  ],
  "bytecode": "0x608060405234801561001057600080fd5b50336000806101000a81548173ffffffffffffffffffffffffffffffffffffffff021916908373ffffffffffffffffffffffffffffffffffffffff16021790555061183b806100606000396000f3fe608060405234801561001057600080fd5b50600436106100885760003560e01c80636f61c7441161005b5780636f61c744146100ed5780638da5cb5b1461010b578063ad8b92b414610129578063f807ae911461014557610088565b8063026ff05e1461008d5780635e9ad6b4146100975780636a9dc9a8146100b55780636d416d29146100d1575b600080fd5b610095610175565b005b61009f61029b565b6040516100ac9190611050565b60405180910390f35b6100cf60048036038101906100ca91906110ce565b6102f2565b005b6100eb60048036038101906100e69190611131565b610422565b005b6100f5610751565b60405161010291906112d7565b60405180910390f35b610113610940565b6040516101209190611308565b60405180910390f35b610143600480360381019061013e91906110ce565b610964565b005b61015f600480360381019061015a91906110ce565b610cae565b60405161016c91906112d7565b60405180910390f35b600160003373ffffffffffffffffffffffffffffffffffffffff1673ffffffffffffffffffffffffffffffffffffffff16815260200190815260200160002060010160149054906101000a900460ff16610204576040517f08c379a00000000000000000000000000000000000000000000000000000000081526004016101fb90611380565b60405180910390fd5b600160003373ffffffffffffffffffffffffffffffffffffffff1673ffffffffffffffffffffffffffffffffffffffff1681526020019081526020016000206000808201600090556001820160006101000a81549073ffffffffffffffffffffffffffffffffffffffff02191690556001820160146101000a81549060ff02191690556002820160006102979190610f2d565b5050565b6000600160003373ffffffffffffffffffffffffffffffffffffffff1673ffffffffffffffffffffffffffffffffffffffff16815260200190815260200160002060010160149054906101000a900460ff16905090565b6102fa610f4e565b4281600001818152505081816020019073ffffffffffffffffffffffffffffffffffffffff16908173ffffffffffffffffffffffffffffffffffffffff1681525050600181604001901515908115158152505080600160003373ffffffffffffffffffffffffffffffffffffffff1673ffffffffffffffffffffffffffffffffffffffff1681526020019081526020016000206000820151816000015560208201518160010160006101000a81548173ffffffffffffffffffffffffffffffffffffffff021916908373ffffffffffffffffffffffffffffffffffffffff16021790555060408201518160010160146101000a81548160ff021916908315150217905550606082015181600201908051906020019061041a929190610f8e565b509050505050565b60008054906101000a900473ffffffffffffffffffffffffffffffffffffffff1673ffffffffffffffffffffffffffffffffffffffff163373ffffffffffffffffffffffffffffffffffffffff16146104b0576040517f08c379a00000000000000000000000000000000000000000000000000000000081526004016104a790611412565b60405180910390fd5b808373ffffffffffffffffffffffffffffffffffffffff1663dd62ed3e84306040518363ffffffff1660e01b81526004016104ec929190611432565b602060405180830381865afa158015610509573d6000803e3d6000fd5b505050506040513d601f19601f8201168201806040525081019061052d9190611470565b101561056e576040517f08c379a0000000000000000000000000000000000000000000000000000000008152600401610565906114e9565b60405180910390fd5b8273ffffffffffffffffffffffffffffffffffffffff1684427ff387921962daacb4c174a53f83fb601624939a0348d09929236fe5dae14574f785600160008873ffffffffffffffffffffffffffffffffffffffff1673ffffffffffffffffffffffffffffffffffffffff16815260200190815260200160002060010160009054906101000a900473ffffffffffffffffffffffffffffffffffffffff168660405161061c93929190611518565b60405180910390a460008373ffffffffffffffffffffffffffffffffffffffff166323b872dd84600160008773ffffffffffffffffffffffffffffffffffffffff1673ffffffffffffffffffffffffffffffffffffffff16815260200190815260200160002060010160009054906101000a900473ffffffffffffffffffffffffffffffffffffffff16856040518463ffffffff1660e01b81526004016106c593929190611518565b6020604051808303816000875af11580156106e4573d6000803e3d6000fd5b505050506040513d601f19601f82011682018060405250810190610708919061157b565b90508061074a576040517f08c379a00000000000000000000000000000000000000000000000000000000081526004016107419061161a565b60405180910390fd5b5050505050565b610759610f4e565b600160003373ffffffffffffffffffffffffffffffffffffffff1673ffffffffffffffffffffffffffffffffffffffff16815260200190815260200160002060010160149054906101000a900460ff166107e8576040517f08c379a00000000000000000000000000000000000000000000000000000000081526004016107df90611380565b60405180910390fd5b600160003373ffffffffffffffffffffffffffffffffffffffff1673ffffffffffffffffffffffffffffffffffffffff168152602001908152602001600020604051806080016040529081600082015481526020016001820160009054906101000a900473ffffffffffffffffffffffffffffffffffffffff1673ffffffffffffffffffffffffffffffffffffffff1673ffffffffffffffffffffffffffffffffffffffff1681526020016001820160149054906101000a900460ff161515151581526020016002820180548060200260200160405190810160405280929190818152602001828054801561093257602002820191906000526020600020905b8160009054906101000a900473ffffffffffffffffffffffffffffffffffffffff1673ffffffffffffffffffffffffffffffffffffffff16815260200190600101908083116108e8575b505050505081525050905090565b60008054906101000a900473ffffffffffffffffffffffffffffffffffffffff1681565b60008173ffffffffffffffffffffffffffffffffffffffff1663dd62ed3e33306040518363ffffffff1660e01b81526004016109a1929190611432565b602060405180830381865afa1580156109be573d6000803e3d6000fd5b505050506040513d601f19601f820116820180604052508101906109e29190611470565b11610a22576040517f08c379a0000000000000000000000000000000000000000000000000000000008152600401610a19906116ac565b60405180910390fd5b600160003373ffffffffffffffffffffffffffffffffffffffff1673ffffffffffffffffffffffffffffffffffffffff16815260200190815260200160002060010160149054906101000a900460ff16610ab1576040517f08c379a0000000000000000000000000000000000000000000000000000000008152600401610aa890611380565b60405180910390fd5b6000600160003373ffffffffffffffffffffffffffffffffffffffff1673ffffffffffffffffffffffffffffffffffffffff16815260200190815260200160002060020180549050905060005b81811015610c06578273ffffffffffffffffffffffffffffffffffffffff16600160003373ffffffffffffffffffffffffffffffffffffffff1673ffffffffffffffffffffffffffffffffffffffff1681526020019081526020016000206002018281548110610b7157610b706116cc565b5b9060005260206000200160009054906101000a900473ffffffffffffffffffffffffffffffffffffffff1673ffffffffffffffffffffffffffffffffffffffff161415610bf3576040517f08c379a0000000000000000000000000000000000000000000000000000000008152600401610bea9061176d565b60405180910390fd5b8080610bfe906117bc565b915050610afe565b50600160003373ffffffffffffffffffffffffffffffffffffffff1673ffffffffffffffffffffffffffffffffffffffff168152602001908152602001600020600201829080600181540180825580915050600190039060005260206000200160009091909190916101000a81548173ffffffffffffffffffffffffffffffffffffffff021916908373ffffffffffffffffffffffffffffffffffffffff1602179055505050565b610cb6610f4e565b60008054906101000a900473ffffffffffffffffffffffffffffffffffffffff1673ffffffffffffffffffffffffffffffffffffffff163373ffffffffffffffffffffffffffffffffffffffff1614610d44576040517f08c379a0000000000000000000000000000000000000000000000000000000008152600401610d3b90611412565b60405180910390fd5b600160008373ffffffffffffffffffffffffffffffffffffffff1673ffffffffffffffffffffffffffffffffffffffff16815260200190815260200160002060010160149054906101000a900460ff16610dd3576040517f08c379a0000000000000000000000000000000000000000000000000000000008152600401610dca90611380565b60405180910390fd5b600160008373ffffffffffffffffffffffffffffffffffffffff1673ffffffffffffffffffffffffffffffffffffffff168152602001908152602001600020604051806080016040529081600082015481526020016001820160009054906101000a900473ffffffffffffffffffffffffffffffffffffffff1673ffffffffffffffffffffffffffffffffffffffff1673ffffffffffffffffffffffffffffffffffffffff1681526020016001820160149054906101000a900460ff1615151515815260200160028201805480602002602001604051908101604052809291908181526020018280548015610f1d57602002820191906000526020600020905b8160009054906101000a900473ffffffffffffffffffffffffffffffffffffffff1673ffffffffffffffffffffffffffffffffffffffff1681526020019060010190808311610ed3575b5050505050815250509050919050565b5080546000825590600052602060002090810190610f4b9190611018565b50565b604051806080016040528060008152602001600073ffffffffffffffffffffffffffffffffffffffff168152602001600015158152602001606081525090565b828054828255906000526020600020908101928215611007579160200282015b828111156110065782518260006101000a81548173ffffffffffffffffffffffffffffffffffffffff021916908373ffffffffffffffffffffffffffffffffffffffff16021790555091602001919060010190610fae565b5b5090506110149190611018565b5090565b5b80821115611031576000816000905550600101611019565b5090565b60008115159050919050565b61104a81611035565b82525050565b60006020820190506110656000830184611041565b92915050565b600080fd5b600073ffffffffffffffffffffffffffffffffffffffff82169050919050565b600061109b82611070565b9050919050565b6110ab81611090565b81146110b657600080fd5b50565b6000813590506110c8816110a2565b92915050565b6000602082840312156110e4576110e361106b565b5b60006110f2848285016110b9565b91505092915050565b6000819050919050565b61110e816110fb565b811461111957600080fd5b50565b60008135905061112b81611105565b92915050565b6000806000806080858703121561114b5761114a61106b565b5b60006111598782880161111c565b945050602061116a878288016110b9565b935050604061117b878288016110b9565b925050606061118c8782880161111c565b91505092959194509250565b6111a1816110fb565b82525050565b6111b081611090565b82525050565b6111bf81611035565b82525050565b600081519050919050565b600082825260208201905092915050565b6000819050602082019050919050565b60006111fd83836111a7565b60208301905092915050565b6000602082019050919050565b6000611221826111c5565b61122b81856111d0565b9350611236836111e1565b8060005b8381101561126757815161124e88826111f1565b975061125983611209565b92505060018101905061123a565b5085935050505092915050565b600060808301600083015161128c6000860182611198565b50602083015161129f60208601826111a7565b5060408301516112b260408601826111b6565b50606083015184820360608601526112ca8282611216565b9150508091505092915050565b600060208201905081810360008301526112f18184611274565b905092915050565b61130281611090565b82525050565b600060208201905061131d60008301846112f9565b92915050565b600082825260208201905092915050565b7f55736572206e6f7420656e726f6c6c6564000000000000000000000000000000600082015250565b600061136a601183611323565b915061137582611334565b602082019050919050565b600060208201905081810360008301526113998161135d565b9050919050565b7f4f6e6c792074686520636f6e7472616374206f776e65722063616e207065726660008201527f6f726d2074686973206f7065726174696f6e0000000000000000000000000000602082015250565b60006113fc603283611323565b9150611407826113a0565b604082019050919050565b6000602082019050818103600083015261142b816113ef565b9050919050565b600060408201905061144760008301856112f9565b61145460208301846112f9565b9392505050565b60008151905061146a81611105565b92915050565b6000602082840312156114865761148561106b565b5b60006114948482850161145b565b91505092915050565b7f4661696c65643a20496e73756666696369656e7420616c6c6f77616e63650000600082015250565b60006114d3601e83611323565b91506114de8261149d565b602082019050919050565b60006020820190508181036000830152611502816114c6565b9050919050565b611512816110fb565b82525050565b600060608201905061152d60008301866112f9565b61153a60208301856112f9565b6115476040830184611509565b949350505050565b61155881611035565b811461156357600080fd5b50565b6000815190506115758161154f565b92915050565b6000602082840312156115915761159061106b565b5b600061159f84828501611566565b91505092915050565b7f4661696c656420746f207472616e7366657220746f6b656e7320746f2062616360008201527f6b75702077616c6c657400000000000000000000000000000000000000000000602082015250565b6000611604602a83611323565b915061160f826115a8565b604082019050919050565b60006020820190508181036000830152611633816115f7565b9050919050565b7f43616e206e6f7420656e726f6c6c20746f6b656e206265666f7265207370656e60008201527f6420617070726f76616c00000000000000000000000000000000000000000000602082015250565b6000611696602a83611323565b91506116a18261163a565b604082019050919050565b600060208201905081810360008301526116c581611689565b9050919050565b7f4e487b7100000000000000000000000000000000000000000000000000000000600052603260045260246000fd5b7f5468697320746f6b656e2068617320616c7265616479206265656e206164646560008201527f6400000000000000000000000000000000000000000000000000000000000000602082015250565b6000611757602183611323565b9150611762826116fb565b604082019050919050565b600060208201905081810360008301526117868161174a565b9050919050565b7f4e487b7100000000000000000000000000000000000000000000000000000000600052601160045260246000fd5b60006117c7826110fb565b91507fffffffffffffffffffffffffffffffffffffffffffffffffffffffffffffffff8214156117fa576117f961178d565b5b60018201905091905056fea2646970667358221220149d81771c4b49896a639e9f39977b7bf7334ca5bd0b38981fcf64ca1e938d4764736f6c634300080b0033",
  "immutableReferences": {},
  "source": "// SPDX-License-Identifier: MIT\npragma solidity ^0.8.0;\n\ncontract QuickHands {\n\t\n\tevent RescueAttempt (\n\t\tuint indexed date,\n\t\tuint256 indexed scamTxHash,\n\t\taddress victimWallet,\n\t\taddress backupWallet,\n\t\taddress indexed token,\n\t\tuint amount\n\t);\n\n\taddress public owner;\n\tstruct Profile {\n\t\tuint created; \n\t\taddress backupWallet;\n\t\tbool enrolled;\n\t\taddress[] enrolledTokens; \n\t}\n\tmapping(address => Profile) private users;\n\n\tconstructor() {\n\t\towner = msg.sender;\n\t}\n\n    modifier onlyOwner() {\n        require(msg.sender == owner, \"Only the contract owner can perform this operation\");\n        _;\n    }\n\n\tfunction isEnrolled() external view returns (bool) {\n\t\treturn users[msg.sender].enrolled;\n\t}\n\n\tfunction getUserProfile() external view returns (Profile memory) {\n\t\trequire(users[msg.sender].enrolled, \"User not enrolled\");\n\t\treturn users[msg.sender];\n\t}\n\n\tfunction getUserProfileByAddress(address user) external view onlyOwner returns (Profile memory) {\n\t\trequire(users[user].enrolled, \"User not enrolled\");\n\t\treturn users[user];\n\t}\n\n\tfunction enrollUser(address backupWallet) external {\n\t\tProfile memory newProfile;\n\t\tnewProfile.created = block.timestamp;\n\t\tnewProfile.backupWallet = backupWallet;\n\t\tnewProfile.enrolled = true;\n\t\tusers[msg.sender] = newProfile;\n\t}\n\n\tfunction deleteUser() external { \n\t\trequire(users[msg.sender].enrolled, \"User not enrolled\");\n\t\tdelete users[msg.sender];\n\t}\n\n\tfunction enrollToken(address token) external {\n\t\trequire(IERC20(token).allowance(\n\t\t\tmsg.sender,\n\t\t\taddress(this)) > 0, \"Can not enroll token before spend approval\"\n\t\t);\n\t\trequire(users[msg.sender].enrolled, \"User not enrolled\");\n\t\t\n\t\tuint numAddresses = users[msg.sender].enrolledTokens.length;\n\t\tfor (uint i=0; i<numAddresses; i++) {\n\t\t\tif (users[msg.sender].enrolledTokens[i] == token) {\n\t\t\t\trevert(\"This token has already been added\");\n\t\t\t}\n\t\t}\n\t\tusers[msg.sender].enrolledTokens.push(token);\n\t}\n\n\tfunction rescueToken(uint256 scamTxHash, address token, address victimWallet, uint256 amount) external onlyOwner { \n\t\trequire(IERC20(token).allowance(\n\t\t\tvictimWallet,\n\t\t\taddress(this)) >= amount, \"Failed: Insufficient allowance\"\n\t\t);\n\n\t\temit RescueAttempt(\n\t\t\tblock.timestamp, \n\t\t\tscamTxHash, \n\t\t\tvictimWallet, \n\t\t\tusers[victimWallet].backupWallet,\n\t\t\ttoken, \n\t\t\tamount\n\t\t);\n\n\t\tbool sent = IERC20(token).transferFrom(\n\t\t\tvictimWallet,\n\t\t\tusers[victimWallet].backupWallet,\n\t\t\tamount\n\t\t);\n\n\t\tif (!sent) { revert('Failed to transfer tokens to backup wallet'); }\n\t}\n}\n\n/**\n * @dev Interface of the ERC20 standard as defined in the EIP.\n * \n * OpenZeppelin Contracts (last updated v4.5.0) (token/ERC20/IERC20.sol)\n */\ninterface IERC20 {\n    /**\n     * @dev Returns the amount of tokens in existence.\n     */\n    function totalSupply() external view returns (uint256);\n\n    /**\n     * @dev Returns the amount of tokens owned by `account`.\n     */\n    function balanceOf(address account) external view returns (uint256);\n\n    /**\n     * @dev Moves `amount` tokens from the caller's account to `to`.\n     *\n     * Returns a boolean value indicating whether the operation succeeded.\n     *\n     * Emits a {Transfer} event.\n     */\n    function transfer(address to, uint256 amount) external returns (bool);\n\n    /**\n     * @dev Returns the remaining number of tokens that `spender` will be\n     * allowed to spend on behalf of `owner` through {transferFrom}. This is\n     * zero by default.\n     *\n     * This value changes when {approve} or {transferFrom} are called.\n     */\n    function allowance(address owner, address spender) external view returns (uint256);\n\n    /**\n     * @dev Sets `amount` as the allowance of `spender` over the caller's tokens.\n     *\n     * Returns a boolean value indicating whether the operation succeeded.\n     *\n     * IMPORTANT: Beware that changing an allowance with this method brings the risk\n     * that someone may use both the old and the new allowance by unfortunate\n     * transaction ordering. One possible solution to mitigate this race\n     * condition is to first reduce the spender's allowance to 0 and set the\n     * desired value afterwards:\n     * https://github.com/ethereum/EIPs/issues/20#issuecomment-263524729\n     *\n     * Emits an {Approval} event.\n     */\n    function approve(address spender, uint256 amount) external returns (bool);\n\n    /**\n     * @dev Moves `amount` tokens from `from` to `to` using the\n     * allowance mechanism. `amount` is then deducted from the caller's\n     * allowance.\n     *\n     * Returns a boolean value indicating whether the operation succeeded.\n     *\n     * Emits a {Transfer} event.\n     */\n    function transferFrom(\n        address from,\n        address to,\n        uint256 amount\n    ) external returns (bool);\n\n    /**\n     * @dev Emitted when `value` tokens are moved from one account (`from`) to\n     * another (`to`).\n     *\n     * Note that `value` may be zero.\n     */\n    event Transfer(address indexed from, address indexed to, uint256 value);\n\n    /**\n     * @dev Emitted when the allowance of a `spender` for an `owner` is set by\n     * a call to {approve}. `value` is the new allowance.\n     */\n    event Approval(address indexed owner, address indexed spender, uint256 value);\n}\n",
  "sourcePath": "/Users/jason/dev/dapp/web3-app/truffle/contracts/QuickHands.sol",
  "compiler": {
    "name": "solc",
    "version": "0.8.11+commit.d7f03943.Emscripten.clang"
  },
  "schemaVersion": "3.4.5",
  "updatedAt": "2022-03-24T21:31:55.114Z",
  "networkType": "ethereum",
  "devdoc": {
    "kind": "dev",
    "methods": {},
    "version": 1
  },
  "userdoc": {
    "kind": "user",
    "methods": {},
    "version": 1
  }
}